:020000040000FA
:08000000D8D1850B3E45E33425
:100800002DEB1896CBA8EBBC22DABBB8FA3BDB0386
:1008100058D33798442370078B788AF7A0589526C9
:100820006A55292D22CE8ACF1E8A103613142B62C8
:100830003FBFF7D62273FEDA2C3D947124D8BD2633
:100840003A0EC7168492DBE40A67DB3F765EB64950
:100850009600BA4CC462E98C01311896163308C070
:100860001FF5FA0B4CCB38A2DEE27AA1C4A89AE1BC
:10087000E997EDBF283C3E9BB273890E2EA7866E8A
:100880004805267490A20C52A209C1F45CCC858D57
:10089000EAE01FEB784868000DED97D48D6D65CACE
:1008A0006B45790FFB4787B04DF6624459AACC4798
:1008B000BDE8AACA2ABC34E6E0B37018C865966CD5
:1008C000E57107DBC3DD9F06E84CC166CD7C409730
:1008D0005CDCFE8DFE737EFA2D8250604A65C4DDBD
:1008E00026B75B738171531B49F9A35CF5C82306D6
:1008F000246545C3CCD4B35DEEF996BD1C708BAEB8
:100900004FD715BF62D6BE5C76BEF246E0CB6674AA
:100910000557EA1E86FB0F21F8CF1FAEBE05AFFEBE
:10092000CFB651025E199E7A933B4C016E1C226A2F
:100930004388E85451B1B303E41D105A03A0127F59
:10094000063D207B53A9B8C1B849C711F3607D01AA
:1009500031E25FB1A110E5BFF3EA276E034C871EB9
:10096000DD1258E69A5691CAD4A39D719CB72C9E6D
:100970000CE05A33A72A1F2EBD49FB56993F1FF59D
:100980000CF66D8D50B4C043A1FB6900EFC40A4161
:100990008C4766A8E24F1B5823559E6D5219B6A886
:1009A000271E38B2DE7D0052D3C885DB441509E32B
:1009B0000C3D0E7F18C83F11A4F32C51E2277E0492
:1009C000EB00D22ED2CFA8783E43CAF3EF88B820EE
:1009D000B86167E8920E24C9C9E50A3CE0A1AA29DA
:1009E000E2F3F6A085832E1B001AA2BA3B8E72F8A2
:1009F0004030FCAEFF7EA99028DD652A763FFD528F
:100A0000995CAC398CB026A74397A00807DE8F35D8
:100A1000C43D4A1FF85343CECF7568E0824FDFB91B
:100A2000B2C1EC97F1E281F6A6B2D9CB34EA4F26F7
:100A300046ACCB0596167BFCA3573B2708CBAEAA4A
:100A4000699BC6342DFB68ED038AAA12FDB1D74914
:100A5000B29F86F5A9C489A598340934AE6439409B
:100A600018751FB8C04C8502B2F97845830138F477
:100A700000B6D65B05871C2DCBC694C7000FC1AD51
:100A80007A21B77EC863A2B62F9659D564D2616D1C
:100A90006E86A46DB986F3D48E15FED3B8BA3B35F5
:100AA0006AB8B25687019FC98812FF4A719E7FB803
:100AB0008E71A8719AB4A4551E0180AB90B57A2BA3
:100AC0002C67E3861B29E7310F53839631904F45FE
:100AD0004C6F7B24E879CE81CBC020A95DBC850812
:100AE0000638D3492B8A4726187103997BCEF0002C
:100AF0004DD6D7B1C681C5CF95DE376C7D5E9C2AB9
:100B0000B8C18B60345CDFFDA9521935A85A11B108
:100B1000C99455D33BF6E703EDDACFE37279DB0CEA
:100B2000A9521935A85A11B1C99455D33BF6E70318
:100B300036830ADE63DC7C73668720062D3B9D903E
:100B4000217F736FDF82534D27B58D08F9E7E84F9A
:100B5000215A2DD6DD4794939D78414FDF5C197F54
:100B6000560B5F84A6F707174DD6D7B1C681C5CF00
:100B70000DF2D677C09119BF0FFFA59FB79C4E3DD0
:100B8000364D37CB8ECDDC6E6F276D4BCD62FC942E
:100B90005F8B1B28B57FC73C845A6486A6A1C9BD5C
:100BA0005E97670B05C1A751C9D4DE6919E275DCF0
:100BB000D04529DEEF058DB5F2C99D45E0628B87F2
:100BC000B6E39ECE77900FA49CB7F25ED0DBF36ABB
:100BD000E061D0F2D0155501BB27EACBFD01FDA2A3
:100BE00045F16F98DCD0F45355D7543BBBEFAE853D
:100BF000A742B4A2953D8258BE983C89876E5BE9B6
:100C0000DF73B4A02F0DD5560CD5F18AF31632350B
:100C1000AFFF0806FC3261D1B76A355286B111FBCD
:100C2000C5DCDC484A0FBAFEF39DD1738D145E41DA
:100C300023CA2613791A6C86DB11D5BB45675D364E
:100C40001F147BC1A80AEECC8E39321A391B0C71E5
:100C5000726753EA06421E2A8829C711405EC96995
:100C6000A9521935A85A11B1CEA43D8798375469B5
:100C700041565D075BB5A1EB5D12EC0F6285373B1A
:100C8000D071EB4A2B92639BAF38D270BD6E562366
:100C90006E9D00E3507930971343EDDA3A4297089E
:100CA000D900F5E585056F4002A24491AA5A1F07B5
:100CB000610ADE7768CF3A273DF88DEE60D4541C88
:100CC000646EBBDA6C0EED574EAE6ECF50D2E618A6
:100CD000FCDFDF49B19F6B87BE611BED409A555524
:100CE000339D4ADE109BBB6035802E930C2B6685AE
:100CF00058B69AA1F67697D5F8E40582582D7B1A56
:100D0000B33072FD575CE08A779F6718D7B5FBD97F
:100D1000106AFA8A491AE76B3E1C595A36C06603B4
:100D2000B2E811EA9FC5DB70C9D4DE6919E275DC4F
:100D3000D04529DEEF058DB5F2C99D45E0628B8770
:100D40009C1C60CE7824B5C29CB7F25ED0DBF36AFF
:100D5000E061D0F2D0155501687D8F5E10AEEDEEEA
:100D600045F16F98DCD0F4538D9F4723EA360E90FF
:100D7000E19F4F8368B5A27C4C14267A378F2835C3
:100D80004ACFAE6948CC98ED95D96D7F34C6917342
:100D900080709CA6BF3080786D46033BBBFDCD7B49
:100DA0003E143A02AF41D124CF4FBDCD50517A0EFF
:100DB00004B82619E3C5599771C88F7805140FFD3B
:100DC000CF4FBDCD50517A0E04B82619E3C55997BF
:100DD00007436F09A3CF5D73F236729750267FBF2A
:100DE000E349643EC457390E9A447A74B21851BA32
:100DF000C4738FC997FD391ACA0FA325BDD3EAC49E
:100E0000E84CC166CD7C4097A7F1807568562737BE
:100E1000B60D20FE40D93DDFA0D0A9B1A2DA312520
:100E2000CF4FBDCD50517A0E04B82619E3C559975E
:100E300038FD84004B0E51DC4C5B2357BA71558D45
:100E400007436F09A3CF5D73F236729750267FBFB9
:100E50001D22E2DBEADBFA926C12C45D28F63F66E3
:100E6000A8312504CAB307FAB34C95781467E5B2E4
:100E70002B35ECC7C67B0F41DCF01C1797F13FF018
:100E8000D087269079D91A1AE1B1E2C84B41C5D36F
:100E9000831984C15691A689046BC84468DCF62B7B
:100EA000FE980CBE23FC7B2F798A195FB6A9515D91
:100EB000ECC2D231DF5F3B5DC6990D50B076D8BE33
:100EC000D1C5069D93311F1B0B1E56304D3F26D9B1
:100ED000FE980CBE23FC7B2FEF0D709F963D3D0EC0
:100EE000ECC2D231DF5F3B5DC6990D50B076D8BE03
:100EF0003C43AB3B563C29AE0B1E56304D3F26D9EA
:100F0000FE980CBE23FC7B2FACA7510C0567177411
:100F1000ECC2D231DF5F3B5DC6990D50B076D8BED2
:100F2000B4B3E658FA2095050B1E56304D3F26D92E
:100F3000FE980CBE23FC7B2F964C71F943E104B064
:100F4000ECC2D231DF5F3B5DC6990D50B076D8BEA2
:100F500068040177A00F942D0B1E56304D3F26D903
:100F6000FE980CBE23FC7B2F3F37A9E2D22C024A0D
:100F7000ECC2D231DF5F3B5DC6990D50B076D8BE72
:100F800043301A77D272675E0B1E56304D3F26D91A
:100F9000FE980CBE23FC7B2F5CF628F31292AFED7B
:100FA000ECC2D231DF5F3B5DC6990D50B076D8BE42
:100FB0008CEBC73AAFB493600B1E56304D3F26D929
:100FC000FE980CBE23FC7B2F5B772594B64D87D013
:100FD000ECC2D231DF5F3B5DC6990D50B076D8BE12
:100FE000E19F4F8368B5A27C0B1E56304D3F26D93A
:100FF000FE980CBE23FC7B2F9C2CB2F5DDDDD18D41
:10100000ECC2D231DF5F3B5DC6990D50B076D8BEE1
:101010007828ECF23BE6AF4D0B1E56304D3F26D9FB
:101020006AC3B5E61CF07E5FF39F876C65815E1B2B
:10103000440D824BE4419BDD5CF628F31292AFED48
:10104000123F0649728556DF4FD57662FED3FFD830
:101050005EDC3BFFA0F9BCB0C34225AAEB24ADA7E0
:10106000164FFAB38621CB31E6EC3E318F3BD1509F
:10107000550FE5D1B2103FC0A9FA5DDB2798732068
:10108000D194BB3EA27D1C8841DBE76715446253C7
:1010900008FC0EBC446FADB7164FFAB38621CB31B6
:1010A000E4F695DDA02D1097C7B93F5C9EB2615F55
:1010B000F4B9276D244A53253426188774B9A1AD95
:1010C000B6289D6DA2BD36A83731D15643C1844D97
:1010D00084B39F7BC4E092F209B5A26709345395AB
:1010E000D9CE36E5355E29A96D9156A22283164FD9
:1010F0004EE5B1A234A65F67569FCDCEC9680F14E6
:10110000DD0007F93555AC6F93E34688CDCC5F49D8
:10111000FCDD0A4B0FF4E6AB20EF5A546B583D8EC2
:10112000C07C456164C2C1FE7DF60499B9D572E107
:10113000E1B1E2C84B41C5D39226C8B830805912FC
:101140008180A012F3B7FB7A5A6F7AB91C52F5E589
:10115000F601D0173DA49F0D19DB4F11A08CF8F2BA
:10116000FAC3E3F5E4CA9FC38B20006FDA1386BC91
:1011700071154EE7D297D6DC39277F39F0A0884D1C
:10118000423B508C2BECCE94753794B827DA702400
:101190005034102ED307AF1632F5D5CEEE3F106C7B
:1011A0004E9202F6F766E4D9F3CE501EC389E95A8F
:1011B0006689979BC4790E559480B4EE881474C5E3
:1011C00054EE2E3D6223E7E4550FE5D1B2103FC047
:1011D000D4B5FDC9FDC5696DF4B9276D244A532501
:1011E0003426188774B9A1ADB6289D6DA2BD36A866
:1011F0003731D15643C1844D84B39F7BC4E092F212
:1012000009B5A26709345395D9CE36E5355E29A9CB
:101210006D9156A22283164F4EE5B1A234A65F67A8
:10122000569FCDCEC9680F14DD0007F93555AC6F58
:1012300093E34688CDCC5F49FCDD0A4B0FF4E6AB67
:10124000EB4691D82BC99327C07C456164C2C1FE8F
:101250007DF60499B9D572E1E1B1E2C84B41C5D33D
:101260009226C8B8308059128180A012F3B7FB7A59
:101270002E4B8DE5E747BB1B0CFD329002293B0648
:10128000A5CB92D83C644B26298763C9C1E01A3AA2
:10129000A45C6D1CBEA51A82960119E5CDE06A63B7
:1012A00056798278C72430565B188F630FA6E0EC1E
:1012B00020A28EEC76D05D99FE722AAEE9E6F56842
:1012C000E5A75CDC355684BE5C5966309E82C6C795
:1012D000B114A453920EE9F5C6E736C4B0B18668DE
:1012E000690832FF4C82CF3442188DB914494CDB67
:1012F00038FD84004B0E51DC9984EBC3C38D28EB81
:10130000CBD5B26FDFF668776C0A17450C9315845E
:10131000F9AEDF2FCD097EA1D0D14AB262F9CD2737
:101320005B66FCCFE3D35EAA712D549059845E09AD
:1013300018A567F52E182C746CA44C206E5A042640
:1013400055C7E86432270525B5675565B272476F02
:1013500039EA46305C23762D18BA7FD6B34987ED3B
:1013600071B6F4D628B9640FA5F68242BBF52D03F9
:101370003161D256271BC33F5D9AEE31C75D8DE1C7
:10138000972B997A793191AAE19F4F8368B5A27C16
:10139000B271AADC2F42B8AEFB5EB6482680F8CB0D
:1013A000F749173E9B98D5AA6F301CD9DDE6A2D12C
:1013B000A3D9FD46D36B59FC3E35959EC13002F54D
:1013C000A7F585487B89B53A4951A857F1D4EC4C2B
:1013D000A0AB3575986EA1C2498F5BAF518A07C724
:1013E000EC3B30725AE1D57D8056C6BD881FD5B41E
:1013F00047EAA48D1DF9F31B72B33558DFB8CFF45B
:10140000FE5712F97F580D85423B508C2BECCE9441
:10141000753794B827DA70245034102ED307AF16DE
:1014200032F5D5CEEE3F106C4E9202F6F766E4D957
:101430005510A1D317DDBFFFB151DA901C162FC98B
:101440009480B4EE881474C554EE2E3D6223E7E414
:10145000550FE5D1B2103FC075445DFDEC3E0A0F5B
:10146000B60D20FE40D93DDF7CF32F10EF35BC7A5E
:10147000D7B4D1C097FC6CC76FB311B619AC56A4E2
:10148000632BF93081F08537D5BD899F5B69180DD5
:10149000069AEEBF6EB0980739B85B5D33BC2685FF
:1014A000D2CF5E3A2157C145C714FA8F3869B84385
:1014B0000DAEFEDA8347450725B150D49A3D92CA56
:1014C0004EE5B1A234A65F67569FCDCEC9680F1412
:1014D000DD0007F93555AC6F93E34688CDCC5F4905
:1014E000FCDD0A4B0FF4E6AB0D6AD07E41943BCB9A
:1014F000C07C456164C2C1FE7DF60499B9D572E134
:10150000E1B1E2C84B41C5D33245C72CE88381D253
:10151000E3C8E6B7EEFCDBC48829C711405EC969A1
:10152000A9521935A85A11B1CEA43D8798375469EC
:1015300041565D075BB5A1EB5D12EC0F6285373B51
:10154000D071EB4A2B92639BD844578191BE38A847
:101550006E9D00E350793097962BD6F570B307391E
:10156000234229AAFF19F4981B67D061E9AC87BB15
:1015700021BC8A2AE2003F9A6DB873F34951566C38
:1015800025B150D49A3D92CA4EE5B1A234A65F6708
:10159000569FCDCEC9680F14DD0007F93555AC6FE5
:1015A00093E34688CDCC5F49FCDD0A4B0FF4E6ABF4
:1015B000140D2F053599F50AC07C456164C2C1FE42
:1015C0007DF60499B9D572E1E1B1E2C84B41C5D3CA
:1015D0003245C72CE88381D2726753EA06421E2A3D
:1015E0008829C711405EC969A9521935A85A11B195
:1015F000CEA43D879837546941565D075BB5A1EB92
:101600005D12EC0F6285373BD071EB4A2B92639BE6
:10161000AF38D270BD6E56236E9D00E3507930977F
:10162000A97417A9B3945BDC98D617802463DA6297
:10163000B46CB61013A43007423B508C2BECCE9404
:10164000753794B827DA70245034102ED307AF16AC
:1016500032F5D5CEEE3F106C4E9202F6F766E4D925
:10166000F3CE501EC389E95A6689979BC4790E55FB
:101670009480B4EE881474C554EE2E3D6223E7E4E2
:10168000550FE5D1B2103FC075445DFDEC3E0A0F29
:10169000E0DF3AAE6D980ACD7CF32F10EF35BC7ABF
:1016A000D7B4D1C097FC6CC76FB311B619AC56A4B0
:1016B000632BF93081F08537D5BD899F5B69180DA3
:1016C000B00E99B1E49CBD0D39B85B5D33BC268585
:1016D000D2CF5E3A2157C1459F4B4499352ADA3221
:1016E00092205C3A0C877D8947EAA48D1DF9F31B93
:1016F00072B33558DFB8CFF4FE5712F97F580D8515
:10170000423B508C2BECCE94753794B827DA70247A
:101710005034102ED307AF1632F5D5CEEE3F106CF5
:101720004E9202F6F766E4D9AFA4EE0BFF270B2426
:101730006689979BC4790E559480B4EE881474C55D
:1017400054EE2E3D6223E7E4550FE5D1B2103FC0C1
:1017500075445DFDEC3E0A0FB60D20FE40D93DDF1D
:101760007CF32F10EF35BC7AD7B4D1C097FC6CC78F
:101770006FB311B619AC56A4632BF93081F08537DD
:10178000D5BD899F5B69180D069AEEBF6EB09807AC
:1017900039B85B5D33BC2685D2CF5E3A2157C1454F
:1017A000C714FA8F3869B8430DAEFEDA8347450790
:1017B00025B150D49A3D92CA4EE5B1A234A65F67D6
:1017C000569FCDCEC9680F14DD0007F93555AC6FB3
:1017D00093E34688CDCC5F49FCDD0A4B0FF4E6ABC2
:1017E000EB4691D82BC99327C07C456164C2C1FEEA
:1017F0007DF60499B9D572E1E1B1E2C84B41C5D398
:101800003245C72CE88381D2E3C8E6B7EEFCDBC4DF
:101810008829C711405EC969A9521935A85A11B162
:10182000CEA43D879837546941565D075BB5A1EB5F
:101830005D12EC0F6285373BD071EB4A2B92639BB4
:10184000D844578191BE38A86E9D00E350793097F7
:10185000962BD6F570B30739DDF4621D1CBF011F4E
:101860006281D870A09771E422328EDF4A8975DBDD
:10187000EF6B8B59D3DE222C55C7E8643227052540
:10188000B5675565B272476F39EA46305C23762DED
:1018900018BA7FD6B34987ED71B6F4D628B9640F6C
:1018A000A5F68242BBF52D0397D66AB92E7F4F98D5
:1018B0005D9AEE31C75D8DE1972B997A793191AAC6
:1018C000E19F4F8368B5A27CB271AADC2F42B8AE0B
:1018D000545E7E630A61D92EF749173E9B98D5AABC
:1018E0006F301CD9DDE6A2D1A3D9FD46D36B59FCDC
:1018F0003E35959EC13002F5A7F585487B89B53AFE
:101900004951A857F1D4EC4C03E8371D30648FD807
:10191000498F5BAF518A07C7D09F3B789A69F87AA5
:101920003BD02C49B6F42F6AE4DE28DB2A8A6B9F71
:10193000A45C6D1CBEA51A82960119E5CDE06A6310
:1019400056798278C72430565B188F630FA6E0EC77
:1019500020A28EEC76D05D99A2545C4866872F8BCE
:10196000E5A75CDC355684BE5C5966309E82C6C7EE
:10197000B114A453920EE9F5C6E736C4B0B1866837
:1019800011EA3783D6B5658342188DB914494CDB0B
:1019900038FD84004B0E51DC9984EBC3C38D28EBDA
:1019A000CBD5B26FDFF668776C0A17450C931584B8
:1019B000F9AEDF2FCD097EA1A040B20056320197CB
:1019C0005B66FCCFE3D35EAA712D549059845E0907
:1019D00089F03B64F661E4372E4B8DE5E747BB1B8E
:1019E0000CFD329002293B06A5CB92D83C644B26D5
:1019F0003A0C4D0FCBF3C282A45C6D1CBEA51A82BB
:101A000039EA46305C23762D18BA7FD6B34987ED84
:101A100071B6F4D628B9640FA5F68242BBF52D0342
:101A20008E55F72B4A1DCF14C744EC81A4E1C9DBC6
:101A30002F9E433BA7CFE167B114A453920EE9F563
:101A4000C6E736C4B0B18668690832FF4C82CF342D
:101A500042188DB914494CDB38FD84004B0E51DC23
:101A60009984EBC3C38D28EBCBD5B26FDFF66877D3
:101A70006C0A17450C931584F9AEDF2FCD097EA1B2
:101A8000D0D14AB262F9CD275B66FCCFE3D35EAA20
:101A9000712D549059845E0918A567F52E182C7481
:101AA000BB961A153274E54F55C7E86432270525F1
:101AB000F0B70B6F025EBB1056798278C7243056A0
:101AC0005B188F630FA6E0EC20A28EEC76D05D99B8
:101AD000D26DA075613A36471C45CEC736723D8B34
:101AE0002F14D19A30BB580B972B997A793191AA40
:101AF000E19F4F8368B5A27CB271AADC2F42B8AED9
:101B0000508CF9917797DE1BF749173E9B98D5AA21
:101B10006F301CD9DDE6A2D1A3D9FD46D36B59FCA9
:101B20003E35959EC13002F5A7F585487B89B53ACB
:101B30004951A857F1D4EC4CE5FA6802B8BAFE0155
:101B4000498F5BAF518A07C7EC3B30725AE1D57DB4
:101B50000D56C4B79C2C1E156281D870A09771E4F5
:101B600022328EDF4A8975DB7C72F826A7CA6DA8FF
:101B700055C7E86432270525F0B70B6F025EBB102E
:101B800056798278C72430565B188F630FA6E0EC35
:101B900020A28EEC76D05D99A08F69527B09E489F2
:101BA0001C45CEC736723D8B2F14D19A30BB580BD3
:101BB000972B997A793191AAE19F4F8368B5A27CDE
:101BC000B271AADC2F42B8AE545E7E630A61D92E90
:101BD000F749173E9B98D5AA6F301CD9DDE6A2D1F4
:101BE000A3D9FD46D36B59FC3E35959EC13002F515
:101BF000A7F585487B89B53A4951A857F1D4EC4CF3
:101C000003E8371D30648FD8498F5BAF518A07C70F
:101C1000D09F3B789A69F87A3BD02C49B6F42F6A6A
:101C20006C1B037FC379CB88A45C6D1CBEA51A8294
:101C300039EA46305C23762D18BA7FD6B34987ED52
:101C400071B6F4D628B9640FA5F68242BBF52D0310
:101C5000CBBD3A26C8DF550CC744EC81A4E1C9DBF3
:101C60002F9E433BA7CFE167B114A453920EE9F531
:101C7000C6E736C4B0B1866899BD1E3F946FE40EC6
:101C800042188DB914494CDB38FD84004B0E51DCF1
:101C90009984EBC3C38D28EBCBD5B26FDFF66877A1
:101CA0006C0A17450C931584F9AEDF2FCD097EA180
:101CB00073B98F0292419E635B66FCCFE3D35EAA49
:101CC000712D549059845E0989F03B64F661E437C4
:101CD0002E4B8DE5E747BB1B0CFD329002293B06DE
:101CE000A5CB92D83C644B263A0C4D0FCBF3C28265
:101CF000A45C6D1CBEA51A8239EA46305C23762DA1
:101D000018BA7FD6B34987ED71B6F4D628B9640FF7
:101D1000A5F68242BBF52D031D249209F98903C65D
:101D2000C744EC81A4E1C9DB2F9E433BA7CFE16709
:101D3000B114A453920EE9F5C6E736C4B0B1866873
:101D4000690832FF4C82CF3442188DB914494CDBFC
:101D500038FD84004B0E51DC9984EBC3C38D28EB16
:101D6000CBD5B26FDFF668776C0A17450C931584F4
:101D7000F9AEDF2FCD097EA1D0D14AB262F9CD27CD
:101D80005B66FCCFE3D35EAA712D549059845E0943
:101D900018A567F52E182C74BB961A153274E54FEA
:101DA00055C7E86432270525F0B70B6F025EBB10FC
:101DB00056798278C72430565B188F630FA6E0EC03
:101DC00020A28EEC76D05D99B66AF08F7D36356DA7
:101DD0001C45CEC736723D8B2F14D19A30BB580BA1
:101DE000972B997A793191AAE19F4F8368B5A27CAC
:101DF000B271AADC2F42B8AE508CF9917797DE1BF6
:101E0000F749173E9B98D5AA6F301CD9DDE6A2D1C1
:101E1000A3D9FD46D36B59FC3E35959EC13002F5E2
:101E2000A7F585487B89B53A4951A857F1D4EC4CC0
:101E3000E5FA6802B8BAFE01498F5BAF518A07C75D
:101E4000EC3B30725AE1D57DF4B9276D244A532515
:101E50003426188774B9A1ADB6289D6DA2BD36A8E9
:101E60003731D15643C1844D84B39F7BC4E092F295
:101E700009B5A26709345395D9CE36E5355E29A94F
:101E80003150EAE8A7CCBCDDE91F663127E2B18515
:101E900058B26D4E6E17A5DD0463C307A3706DCAFB
:101EA000DA1FF6630FCC9AB439EA46305C23762DFC
:101EB00018BA7FD6B34987ED71B6F4D628B9640F46
:101EC000A5F68242BBF52D030B357D5C96CDFDD387
:101ED0005D9AEE31C75D8DE1EB1C8A8FC849BCCAA3
:101EE000E19F4F8368B5A27C57C62C18572409D2AE
:101EF000F4B9276D244A53253426188774B9A1AD47
:101F0000B6289D6DA2BD36A83731D15643C1844D48
:101F100084B39F7BC4E092F209B5A267093453955C
:101F2000D9CE36E5355E29A93150EAE8A7CCBCDD2B
:101F3000E91F663127E2B18558B26D4E6E17A5DDF7
:101F40000463C307A3706DCADA1FF6630FCC9AB49B
:101F500039EA46305C23762D18BA7FD6B34987ED2F
:101F600071B6F4D628B9640FA5F68242BBF52D03ED
:101F70002574C55A337C34745D9AEE31C75D8DE1AA
:101F8000EB1C8A8FC849BCCAE19F4F8368B5A27C0D
:101F900057C62C18572409D2F4B9276D244A532563
:101FA0003426188774B9A1ADB6289D6DA2BD36A898
:101FB0003731D15643C1844D84B39F7BC4E092F244
:101FC00009B5A26709345395D9CE36E5355E29A9FE
:101FD0003150EAE8A7CCBCDDE91F663127E2B185C4
:101FE00058B26D4E6E17A5DD0463C307A3706DCAAA
:101FF000DA1FF6630FCC9AB439EA46305C23762DAB
:1020000018BA7FD6B34987ED71B6F4D628B9640FF4
:10201000A5F68242BBF52D0378F67AC5C1B229CA6E
:102020005D9AEE31C75D8DE1EB1C8A8FC849BCCA51
:10203000E19F4F8368B5A27C57C62C18572409D25C
:102040006AABE4A1E9EC3BE913F827C95BBDE47492
:102050003A4DAF498785FB9971626889A81DF0B038
:1020600052DB34FBE811DC0D6877CEDC3A584E7356
:10207000DB19D138F9035429E0E162DBF74D024B5B
:10208000B29DFC16EF957646C69B12A30BBCA057DB
:102090000B357D5C96CDFDD35D9AEE31C75D8DE14C
:1020A00037DE02E90AFE052FEB22313A37404AAE0D
:1020B0002AE29CEE28A3AA4351D12F48F57D6991CD
:1020C000B34C95781467E5B251B87A0CD77633E7FC
:1020D00081382D99DDE8773902E5D3A72615F56A11
:1020E000DB19D138F9035429B29DFC16EF957646D9
:1020F000C69B12A30BBCA0570B357D5C96CDFDD3C0
:102100005D9AEE31C75D8DE180346D6CFC0582B85F
:10211000E6072080EB7314E0AD77D1A0A1A5C92418
:10212000F73DB73801516E12FE9E2AD927B05BC029
:10213000E73C94415E346077455D6DE94634CCE11F
:102140004EC72691C7150779DCB1808D8CC5E9D5BE
:10215000569FCDCEC9680F14DD0007F93555AC6F19
:1021600093E34688CDCC5F49FCDD0A4B0FF4E6AB28
:10217000D752B56E9602AEFAC07C456164C2C1FE0C
:10218000716E7106566BD6EC4C70D7F90104D27B98
:10219000631087C39CD11930A5AA6BCDB02EC70D93
:1021A000A0C72CC934AC44CD70DC5D4A7857151EED
:1021B0006B27021A696DCB642AA8A74B4A4AB291D1
:1021C0008B7F96D6351D69F2AE027361898D53A15E
:1021D00071B4CC2258AF3DEE3EEFFA06AB58EBE2BD
:1021E00001271B3645BD062CD4ADFEC728EF49613B
:1021F000E2DC7AD9D818082AB5656D9CB907923007
:102200007D3503496C8DD7603D7419AD4031224E48
:10221000087CAED43883D585239417275418FAFB4D
:10222000B277B6658FEDF9C0BCBA5C19615B89F015
:10223000BCB41BAC2B7C3C1C87E062B9CFF46FE7CD
:102240009480B4EE881474C55CED5302E5F18514F6
:10225000A50DC5EB8A40ED86C4738FC997FD391A69
:10226000CA0FA325BDD3EAC4E84CC166CD7C409714
:10227000CCC7E4C9448A1C94C4FF9C39EC3DED737F
:10228000D29332A3748455D559338AA5459339AA7C
:10229000BCBA5C19615B89F0BCB41BAC2B7C3C1CE8
:1022A00087E062B9CFF46FE79480B4EE881474C508
:1022B0003F36AAE9E8B9115B6991ABFA365471C0AF
:1022C00051D12F48F57D6991B34C95781467E5B2EB
:1022D00051B87A0CD77633E7D5D354BB96BF9A90D2
:1022E0002243365E03A07BF0DB19D138F903542971
:1022F000B29DFC16EF95764639EA46305C23762D82
:1023000018BA7FD6B34987ED71B6F4D628B9640FF1
:10231000A5F68242BBF52D032574C55A337C34746F
:102320005D9AEE31C75D8DE106F79A919A72E516D6
:102330007D44088B9A86F3555CDAFA449ADEBF61D5
:1023400041A4C39EA9D19CD72F1068C1A63468CBE5
:1023500071B4CC2258AF3DEE3EEFFA06AB58EBE23B
:10236000F8E4A9EA768C0287D4ADFEC728EF49616C
:10237000E2DC7AD9D818082AB5656D9CB907923085
:10238000714BEA5435B3EE3E3D7419AD4031224EE7
:10239000087CAED43883D585239417275418FAFBCC
:1023A000B277B6658FEDF9C0BCBA5C19615B89F094
:1023B000C441303621A96C3C87E062B9CFF46FE7A5
:1023C0009480B4EE881474C55CED5302E5F1851475
:1023D000A50DC5EB8A40ED86C4738FC997FD391AE8
:1023E000CA0FA325BDD3EAC4E84CC166CD7C409793
:1023F000CCC7E4C9448A1C94C4FF9C39EC3DED73FE
:10240000D29332A3748455D559338AA5459339AAFA
:10241000BCBA5C19615B89F0C441303621A96C3CBF
:1024200087E062B9CFF46FE79480B4EE881474C586
:102430003F36AAE9E8B9115B6991ABFA365471C02D
:1024400051D12F48F57D6991B34C95781467E5B269
:1024500051B87A0CD77633E7D5D354BB96BF9A9050
:102460002243365E03A07BF0DB19D138F9035429EF
:10247000B29DFC16EF95764639EA46305C23762D00
:1024800018BA7FD6B34987ED71B6F4D628B9640F70
:10249000A5F68242BBF52D0378F67AC5C1B229CAEA
:1024A0005D9AEE31C75D8DE106F79A919A72E51655
:1024B0007D44088B9A86F355C6D1A561704BE6FB27
:1024C0005AB3D53BB638BA4E2F1068C1A63468CB84
:1024D00071B4CC2258AF3DEE3EEFFA06AB58EBE2BA
:1024E000F5B87D3E4379F196D4ADFEC728EF49613A
:1024F00029A3E512CFF17A3FDF305DBBC0D598BB91
:102500003B741D4952A2104D10CEC3811C04E1F151
:10251000B114A453920EE9F522A8CA2514A43929AE
:102520008899907519CCE8C027DC4B88CF9A1D9FFD
:102530009881512273DE5FA48DD92B0B94090DB3C2
:1025400036D8EAED9177C5BE550FE5D1B2103FC040
:10255000FE980CBE23FC7B2F55448C8704098C49C4
:1025600095632C4AA5B9DE04B68380D7FB7D22C2D1
:102570007657ACEEF847A8C1E19F4F8368B5A27CBF
:1025800069A9A77C14D3D1B3B77A5AEACDB78A1711
:10259000C60A941E6CDCFF5139277F39F0A0884DA4
:1025A000C20FAD0B8F122CA4F98AC9734CD70C3013
:1025B0003DE12ADBFFE829FCAFF075671056CF7AC2
:1025C000239417275418FAFB46F3011D339536540C
:1025D00086F455AC00130BEDE8EBBC9D615D92C237
:1025E000E19F4F8368B5A27C5FAFCE1C9497FB3B05
:1025F00036FACC6A5900E72EB77A5AEACDB78A176D
:10260000D4FB16604C2BD83F312E151488286B450F
:10261000A5854E4D0EFEB74AD3C1552D99B22B5804
:1026200004159AB86579B2F404B82619E3C5599728
:10263000CC12C3CEA1712C5CD6EEE1350164076CDF
:10264000B8699808F71DF18319D2E9C10855A04E61
:10265000ED5505B7084D7E7CD74FB4EA4A858734DF
:10266000A1C94FD90E195C18B6D3CE798D119A082D
:10267000EB646F5C4DCC0AEFB33072FD575CE08ABF
:10268000779F6718D7B5FBD90A504EF86B74CEF711
:1026900016C2F5CEE32C1CA43DCA183E444F8378E5
:1026A000CC061937960BC9CC62D144638D36518361
:1026B0005548B0FF9F05C88CCBF8C6AD7FAEE58905
:1026C0000E16B81D7A4CB13DF39DD1738D145E4149
:1026D0008A7F7724017A8CA1BA5BAF7DB7C03DD4E5
:1026E000822C5FD498D986ECAA2DCDB157DAC3DD00
:1026F00007D2BAEAE04E73C2822C5FD498D986EC36
:102700006D75DAB79CB8D1346932325EFE66885B8B
:10271000B3AA4314CA2F7B625D98A0E1D11EF36A6D
:102720003D55360C4E78D16A58D156BBAC67C8AC13
:10273000193DD29F3DD2BA296E9D00E35079309762
:1027400081E6020D14C9237ACC061937960BC9CC41
:102750005103DC469FB46378E5607A90B357DB534E
:10276000FCB61FAA76D5382A3DCA183E444F837856
:10277000CC061937960BC9CC62D144638D36518390
:102780005548B0FF9F05C88CCBF8C6AD7FAEE58934
:102790000E16B81D7A4CB13DF39DD1738D145E4178
:1027A0008A7F7724017A8CA1BA5BAF7DB7C03DD414
:1027B000822C5FD498D986ECAA2DCDB157DAC3DD2F
:1027C00007D2BAEAE04E73C2822C5FD498D986EC65
:1027D0006D75DAB79CB8D1346932325EFE66885BBB
:1027E000B3AA4314CA2F7B625D98A0E1D11EF36A9D
:1027F0003D55360C4E78D16A58D156BBAC67C8AC43
:10280000193DD29F3DD2BA296E9D00E35079309791
:1028100081E6020D14C9237ACC061937960BC9CC70
:102820005103DC469FB463780B864625A3928BA6A2
:10283000EFF9115D4C3EAB633CF538C01A59764D4B
:10284000C3B6E773E41F580091DC863FD2FFFC411A
:102850003903CB04DE8B612C482555678482660CD6
:1028600017429FE903B0D9F2F2707F8EFE4815DD62
:10287000120F19921D7E522874D1B7D26A343711C3
:10288000692760BB8DC4F793E7FC1D83F700BCEBA1
:1028900091FA16B4CC529C1726FC86DAA931DE4C8C
:1028A00032105F65B25F590384848E4E252018E78D
:1028B00082DFDF6DD9008DB3885B6F46F8494884AD
:1028C000DF73B4A02F0DD5560CD5F18AF31632352F
:1028D0000251A2A4CC523E9AC560EF29A4EA7E46DA
:1028E0002EF21C5E13F6695CF214822748C4043F82
:1028F0001DC5FFD95B79E36AE60AC68DF376170238
:10290000E92CE3B10E68F994D6DFC266C5DD919972
:1029100009051CB0B1BCB5A33E1C595A36C06603AC
:10292000A4099BDC706A0C743FEA06C2AD59FBFE39
:102930001FB3263ADEBA72D2318C4C6A3258325109
:102940000A87544C89476094F33568EDA666BD3B11
:1029500049EC45190B3E36BDE3FA6117D052B89ADF
:10296000647ACBF74647093BB9FBDEDAC1B233A53F
:10297000C4D8B3875BAA4734B017F9DF736D03BCC3
:102980002742740BBCC5C651D7AE7FB8F25CE5AF29
:1029900031DCAD4FC42205DF06309BDAC82D612241
:1029A0007BC0C87009E819F503AE968D7F3826D82C
:1029B000607A872C14129CB7D99BE6189A2EAC2506
:1029C000EAD257A36508EA24F4C638EBC07DB7BA4B
:1029D000C2706578DA3FC5994C14267A378F28354E
:1029E0002CC0CC4D12BAEBEF95D96D7F34C69173E4
:1029F000B5A877EB983891B49E34A0E1244DC0413E
:102A0000164FFAB38621CB311AB4B7E2DAAC32D41E
:102A1000DF73B4A02F0DD5560CD5F18AF3163235DD
:102A2000EC8A22C83549B055C560EF29A4EA7E4634
:102A30002EF21C5E13F6695CF214822748C4043F30
:102A40001DC5FFD95B79E36AE60AC68DF3761702E6
:102A5000E92CE3B10E68F994205E57513B036A11EB
:102A6000C1E96798729F02923E1C595A36C06603AC
:102A7000B2E811EA9FC5DB70476FEB56C52B728138
:102A800031DCAD4FC42205DF875B86858DA3ABF7B4
:102A9000E92CE3B10E68F9943C50AFC808BC72B998
:102AA00098ABFE5610523571E4FFBDD5CF9808BCE7
:102AB00035239E0A40165F78769E8945C8188E9108
:102AC00093245310B8CB045611C0A25CB53C8709BF
:102AD0009F29CD77724D43E5ECB6B8E5B0D9C1E09A
:102AE00092D6D2779A98FC4307D85BBE2688EAC66E
:102AF000B5082D97CCC07AF2AC0F9072A41E54F09A
:102B0000B33072FD575CE08A9A7400A227D42A6C15
:102B1000121C0C209999BF26B33072FD575CE08AD5
:102B200097D7E6FCF11BDD15A19C7FB289393117DF
:102B3000FFDE560D3B6A86BFD04529DEEF058DB519
:102B4000F2C99D45E0628B87F9C7904D676BD263F0
:102B50009CB7F25ED0DBF36AE061D0F2D01555018C
:102B60004C184F8A3AC0AFD714FD9D10B978CC1DD0
:102B7000604018E92BCFFE25B33072FD575CE08A28
:102B80003103F91663C915DB7FDA3E7836EBAD9178
:102B9000F3E6861F8CF1D81109E93E4B9AB2741BFB
:102BA000051FC8D0B0707DB0DF73B4A02F0DD5560F
:102BB0000CD5F18AF3163235C6AC144FAA773BA573
:102BC0003B44C25C47480D3BF47405CEBD1623A7B9
:102BD000541B643659C2694FA742B4A2953D82582E
:102BE000C4D8B3875BAA47349A542FCE25F59BBE31
:102BF000D032E9CAA38978D2B33072FD575CE08A3B
:102C0000072C639D60D3D9417FDA3E7836EBAD91D6
:102C10005A4B68D075EAE6E6DF73B4A02F0DD5569F
:102C20000CD5F18AF316323509C9094C6FDA95D201
:102C30001BAE387B2EE08095EB8A0A23CA874906B3
:102C40000ACE53F5167FC19F5B4D9ED77D242F7909
:102C5000224D9278D7D0EDBBA1A87B8CF832578655
:102C6000B369BB7E0F8AB59209D5A7E8BF29B7A47F
:102C700031DCAD4FC42205DF016D2CE62888460EFD
:102C80001595F7CBC479FAFDA716C7A4412E673175
:102C9000B7D31C95E4AB1EB6452DF132D102712A93
:102CA000917337579D1E7679A62D01B3A74F3D60CE
:102CB000C309D1D2335DD2DADED8CC43DDB96A198B
:102CC000A247CE859D05790067FDFA201B0D808EF9
:102CD000CA509728BBD920E858EABFB7ADA3A1AB2B
:102CE00037F4D96F0D6D21D16D3DCF5D6E432E3C14
:102CF000924D55A89F275F80D04529DEEF058DB501
:102D0000F2C99D45E0628B87BEAC022671320F8707
:102D100023DD66EF09075FC7946A38F0BEADBC2AB1
:102D200006EE6DFC15AB469E1719F9AF28B461ABE2
:102D3000634DA6D175001BCEA5A409836482F84F0C
:102D40000C70AB86976DD81C0E75AD80AB72B46AF3
:102D50004EAE6ECF50D2E618BD6029A53D70B58D40
:102D6000CADF15C7AF86D87C536D4BBE014580873F
:102D7000E01E1102E93D050796331A1B7E495C608F
:102D8000A4C9272FF756C923CC7121DF073F53DE93
:102D90005C598A1CAF1A54C28BC3CC0CFCF69D073D
:102DA000F78C239B7B9483F18E0D63534EAFE12E02
:102DB00067FDFA201B0D808ECB57EEFEBEB38D78DB
:102DC000A9E461C8D6A165BA17D94D18D7D824008F
:102DD000348ABD433ABE85C8F02361D9177077C5E0
:102DE000D04529DEEF058DB5F2C99D45E0628B87A0
:102DF000BEAC022671320F8723DD66EF09075FC77D
:102E0000946A38F0BEADBC2A06EE6DFC15AB469E4A
:102E10001719F9AF28B461AB634DA6D175001BCE6D
:102E200049DCD0AA9B15895465336D39683D674CE0
:102E30003EE221332DFCD3BD0A5C49849C56F0C38D
:102E400051FDA9E806A984962751753D8DF931E415
:102E5000AD292FB7BC478C3C5963ED689126F4AC83
:102E60005E8827A13D3B0C265DDA25E968D539DC73
:102E700023AED4F448F23B0DDF73B4A02F0DD5562A
:102E80000CD5F18AF316323509C9094C6FDA95D29F
:102E90001BAE387B2EE08095EB8A0A23CA87490651
:102EA0000ACE53F5167FC19F5B4D9ED77D242F79A7
:102EB000FAFCC058A8B75D4509303F98FC47464723
:102EC00034CCC0DE55A5CF0BF0CF73FAEE5B036BAD
:102ED000A883CF398D8F1C817FFF17C60A486CB439
:102EE0004D614B198591404340162D893C9442D841
:102EF0005812D4E5C48E82AE284F85363513792F0B
:102F000074505ADC5CE46DFC0086A3870DAA9A22FB
:102F10004211E8B7F41A754017CE3DCC43672B0633
:102F2000CCD96711C89AAF86C2049EF378D9E267FC
:102F30007D686CC0EFECA7066EC8D7F06E700E0708
:102F400079498A7349A6E01A5045102B7A55555C89
:102F5000261D538A0FE58CD36BEA1CC4C492697694
:102F6000BAF57386BF99F580BBDEDB643CB3930290
:102F700026F87AD8B5BB98AA756830238297737003
:102F80000037AFCA6D0AC24BC49B0F2E0D68F6BC4A
:102F9000B2CA13EFFADDC4957EDCE32024961FB697
:102FA00018777F54043776966CB026B093D5849A00
:102FB000C6B1B2D42488D4ECA3ADFAA6CA66244E16
:102FC0006486B5C5EC49DAEBFD1BCB3DD268EDB1AB
:102FD0000B0F1EF5C3CC0639831F7D9CEB25846C3B
:102FE000FF92F09B075AA5225B277FD18684C68675
:102FF000473DCC604DA1FFF8811F5204049A5081D7
:103000009CC90212F100F73A01311896163308C034
:1030100066D7061222B8F5F103E223F16320086CAB
:103020000F80C04A979FFC6B42399107944A5235F2
:103030008149ED1706BC3B036C0C6C079993E59E28
:10304000BEB391C815B80A9DEC725F6F8D76C7400C
:10305000770CE83814CA94DCA126CA807B21554736
:10306000E7D393D0602D55ED58669EBBAF4D576F9B
:10307000FD1BCB3DD268EDB116BA01FC5CE79A4866
:1030800071953ABF3CA2B5A5FF92F09B075AA522C5
:10309000813CFC895584107E4A11CCDD59A26A8C92
:1030A0004EB5DBCEFFD1A70801311896163308C004
:1030B00066D7061222B8F5F103E223F16320086C0B
:1030C0000F80C04A979FFC6B42399107944A523552
:1030D00000E091B0AE475BC3841AFDE2708A324CC7
:1030E000E199DD04455C88909CC90212F100F73A31
:1030F00001311896163308C066D7061222B8F5F1CA
:1031000003E223F16320086C0F80C04A979FFC6B99
:1031100042399107944A52358149ED1706BC3B0369
:1031200087D54F76DFE5F5B4E199DD04455C8890FD
:103130009CC90212F100F73A01311896163308C003
:1031400066D7061222B8F5F103E223F16320086C7A
:103150000F80C04A979FFC6B42399107944A5235C1
:1031600000E091B0AE475BC3A5830217231503EDC2
:10317000C9E12089BFD5C44E6835E3D404B309BB87
:10318000DD9E0C529F6A42F54B8F393642065740FE
:10319000A16102C1F908F136FBCDBD31BD0805F1D1
:1031A0004990C04A69BCB18FFCC106D5EFEF05CD8F
:1031B000327236B3A631DFB7EAD4E7A432D7B7EC20
:1031C000B25D256636FE6E102A37DE645251FE82ED
:1031D000B9326D2A8AEC14EBB9A563B6D13E247DD1
:1031E000D3F7639E44235441FBCDBD31BD0805F1A7
:1031F0006193FD9214D34787C33B6C62D97AB1C007
:10320000A9B0AAC21F17723B0C889A431493053DBC
:10321000F3871F3F6897EA467C1EC480EBD254BCFC
:1032200075A6D06B1B9DB629DDDB7A1E3D58B8898B
:103230002A2408A9D89F7B9C925DABDB6301C9243B
:10324000E535D34FF43C6A8BEBBBA9033E2A9C4681
:10325000F8406EE50FE1D6EDC4D54391AA4BB3FD1E
:1032600060BB5D8476CBF8EA15BED90A3C6098A2B3
:10327000FBCDBD31BD0805F16193FD9214D34787A5
:10328000C33B6C62D97AB1C0557E3973907988217D
:10329000A4A06C913C4C619E591E7103E8AB0BD508
:1032A000ED4F1D89D94BE74DC63008763CB61BF56E
:1032B0007ECC322A39273368C390C135F1C837C470
:1032C0008386EAD778DE091DA29BF844B04E45C438
:1032D000C9277C068934908534C534A5C6885FF833
:1032E0002BC9E1B60753E141A9C98D7C04762C2690
:1032F000097BA6E7A56DA88121C8B594D2A13AA003
:10330000A3ADFAA6CA66244E6A5D8DEC5C11A57D5C
:10331000172ED7647AF60103FEB6F619C1361D8F53
:10332000D4AC79BDA99BBFF87D77F7B3A4FB22F499
:10333000009147ED5880FE91E984D27F678D991BFB
:1033400023BFEAF598BDC1DE414DCDE2C75762C249
:103350007932AEDBF8814DF43FF0F049226F300C4A
:103360003B2A52F6692851F503B9839013BF186CB4
:10337000493B1B70D5247F72A3AADEB10DCED7E9DD
:10338000CCA02847FE6DBD0201311896163308C047
:103390001A374C9CDBB5797B9DA7AF4FEEEEFCC88E
:1033A000352FCE236C822D92325A522D94CCD6D406
:1033B000B0F98F401498E832C24C00CE71493C23DA
:1033C000BA400B58ADCF944F23BFEAF598BDC1DE8C
:1033D000414DCDE2C75762C27932AEDBF8814DF480
:1033E0003FF0F049226F300C94ADFA7718A406A391
:1033F0007FDFE505A09AE73726491C2D0CB8667CCF
:103400006BFE5FC22EE20A2063741B9DB7121DF390
:10341000A126CA807B2155470E46F9615305723DAE
:10342000A9CFFA41DB4C2F2BEEA626706B9D4EF3F5
:10343000306CA937A08E0111FCFD3562FBD2CBE6C2
:103440001F0922BA9587F28AB3208D15EC8DA14F02
:10345000DDDB7A1E3D58B8892A2408A9D89F7B9CB9
:10346000925DABDB6301C924E535D34FF43C6A8B35
:10347000154C9925A54EC51A206D8B8930F3272D43
:10348000F14B973E41ECD9D2A352AB44F5219DC2FA
:10349000C7D2D4E0B26F9AEC21C8B594D2A13AA0B9
:1034A000A3ADFAA6CA66244ED3898C63FA709B1F1B
:1034B000944259949A97978F4677C06E0DB8993574
:1034C000F850EE5DB110B005657C4BC620C6F61510
:1034D000C24C00CE71493C23BA400B58ADCF944F3B
:1034E00023BFEAF598BDC1DE414DCDE2C75762C2A8
:1034F0007932AEDBF8814DF43FF0F049226F300CA9
:10350000E4ED9D72A8B1D8227FDFE505A09AE737E8
:1035100026491C2D0CB8667C29BCE0B32CCC31E8C4
:1035200063741B9DB7121DF3A126CA807B215547EA
:1035300056D1FCE659702D71D65C14BBBAC9B07374
:10354000123F0649728556DF573592309606E3CF13
:10355000CC4F5130DABFF90952CBB8C8538ACF519A
:10356000E7BE657E5C19561727F75516D9C8EC4695
:10357000009147ED5880FE91E984D27F678D991BB9
:1035800023BFEAF598BDC1DE414DCDE2C75762C207
:103590007932AEDBF8814DF43FF0F049226F300C08
:1035A0003DE0456FF93B13E003B9839013BF186CFE
:1035B000493B1B70D5247F721BA03B824F38D82C0F
:1035C000CCA02847FE6DBD0201311896163308C005
:1035D000AEBD04A1BF1ADBCA8D91176409B82D884E
:1035E0007528D7D1D8E989692BCE8E29477D8024CB
:1035F000DB6F7B9AD79671CCEE621A0F54EDB1C790
:10360000E090D5DDBA7C869566F9425CCC55846144
:10361000009147ED5880FE91E984D27F678D991B18
:1036200023BFEAF598BDC1DE414DCDE2C75762C266
:103630007932AEDBF8814DF43FF0F049226F300C67
:103640002E8A1A81E06C799E03B9839013BF186C9F
:10365000493B1B70D5247F72EA1F57EACEE8085910
:10366000CCA02847FE6DBD0201311896163308C064
:10367000AEBD04A1BF1ADBCAA78D7ED13E012C0DC1
:103680007528D7D1D8E9896962CB147C939054AD61
:10369000F50368A7F0E95399EE621A0F54EDB1C72C
:1036A000095CCF2D43101F3E1619C30280C749087D
:1036B000009147ED5880FE91E984D27F678D991B78
:1036C00023BFEAF598BDC1DE414DCDE2C75762C2C6
:1036D0007932AEDBF8814DF43FF0F049226F300CC7
:1036E00099C9031011973E7B03B9839013BF186CDF
:1036F000493B1B70D5247F72F9A848E45EF8F80AAC
:10370000CCA02847FE6DBD0201311896163308C0C3
:103710001A374C9CDBB5797B78CA461337A97308F6
:10372000352FCE236C822D923241B2C627EA28D2A1
:10373000A7684FAE5118303D10866E85DBC98C539B
:1037400083C1BDD05AE7460C20D38DA5421E4C4DF7
:10375000A43741C8AB6D754C83C1BDD05AE7460C48
:1037600032DCAE542F1AA481EEED75F516A80FC900
:10377000A126CA807B2155470E46F9615305723D4B
:10378000A9CFFA41DB4C2F2B6B7C72147718525C5B
:103790001CC8EE87357DD6BE02A20DF2C01405719D
:1037A000D3C37C1C614EAD654D7845E1B4C8EB34A4
:1037B0001116B792D1CEC1BE39C4F5AB8E5113BF2D
:1037C0009FAA57B618E9D021298256DC1377A4E2C4
:1037D000BB42E318C9F32EAEFBCDBD31BD0805F1E8
:1037E0004990C04A69BCB18FD3EA1C5063E7632794
:1037F000F1AF38440B972B509018608C553CF72351
:10380000F59B052B5D5B1C976E5B32F610A0F2807A
:103810009F0C6AAC06B218C91116B792D1CEC1BEC0
:1038200045FE0BC5CF3589F97CB0A122C132A55D1B
:10383000298256DC1377A4E276B698AA321432674E
:10384000FBCDBD31BD0805F16193FD9214D34787CF
:10385000C33B6C62D97AB1C0995C6601571A9598DE
:1038600098BA137D8E85C86813557A9960DEB7BC07
:10387000B1A07E09A24D69754A073AEB6E2B87808D
:10388000F18475F8C7D490708A23350F9F4815FED0
:1038900053EE914ACDEB8198A7D41E0CC768B9EAC4
:1038A0002D60A0A3A57BF701C0A33F3FBB1C5A29F5
:1038B000C9D4DE6919E275DCF8406EE50FE1D6ED9A
:1038C000C4D54391AA4BB3FD898ED2C8A10195BD41
:1038D00001311896163308C0A9E542162CED4C713B
:1038E00077C510CD95FB1BC5E2F804A770670F5C88
:1038F0003F37A9E2D22C024A13557A9960DEB7BC51
:103900004FD57662FED3FFD81B01CF3026309B2BDC
:10391000B3C6E57B30DD40E1C63008763CB61BF52A
:103920007ECC322A39273368C390C135F1C837C4F9
:103930008386EAD778DE091DA29BF844B04E45C4C1
:10394000B0C973A721B0F12557D14D14A21E7768D5
:1039500003B9839013BF186C9F12A18619547B5131
:10396000FBCDBD31BD0805F16193FD9214D34787AE
:10397000C33B6C62D97AB1C04FD57662FED3FFD813
:10398000FEB6F619C1361D8F081E3748485D92896C
:10399000E5BD2FEF232F1F8CFD61693B1C4F396E56
:1039A0005B772594B64D87D0F18475F8C7D49070B5
:1039B0008A23350F9F4815FE53EE914ACDEB81982F
:1039C000A7D41E0CC768B9EA2D60A0A3A57BF70198
:1039D000C0A33F3FBB1C5A29C9D4DE6919E275DC7C
:1039E000F8406EE50FE1D6EDC4D54391AA4BB3FD87
:1039F000898ED2C8A10195BD01311896163308C031
:103A00000E2DFBB6F6F6A4167326AE1921E40BF5BF
:103A10004FD57662FED3FFD88F9ACBEFE5BC4BF43F
:103A200013C6EFC186A8C71E82FB5A2C4D6FF8251E
:103A3000B119F603AD9C392DE19F4F8368B5A27C87
:103A4000AE027361898D53A12EB0CCBD1727B20091
:103A50002F1FEC8127B92E29FA204799722FC664AF
:103A6000813FEB4770E6C8B7FA204799722FC664CA
:103A7000DCA341EF3B000F2F550FE5D1B2103FC043
:103A8000BE983C89876E5BE96F36DF090E9FA08F79
:103A900021C8B594D2A13AA0A3ADFAA6CA66244E15
:103AA000C0E2E320407DB535964C71F943E104B0A6
:103AB0003675E347B5C6A44F4FD57662FED3FFD81F
:103AC000BE983C89876E5BE9C992938E132A458420
:103AD000D0E87D7AA02E6C70565585DE5BC622320A
:103AE00000B14BFA8C5FFDB52A2F16409923122B9B
:103AF000D68CE5BF5781B612092E90D8672FF841B2
:103B0000F67062088965245EE56C81CBECC719B854
:103B1000E7C21021D41D19A7186186B167E4C10856
:103B2000E19F4F8368B5A27CAE027361898D53A17A
:103B30002EB0CCBD1727B200CA6A137AFF400C9F83
:103B400001311896163308C0CB806975C4A67D1E56
:103B500077C510CD95FB1BC5245C6BFF79F7548DA1
:103B60003F37A9E2D22C024AAE027361898D53A17C
:103B700090B26E8E9DEC28819126CFB873DDB82A65
:103B8000565585DE5BC6223200B14BFA8C5FFDB51F
:103B90002A2F16409923122BD68CE5BF5781B612D7
:103BA000092E90D8672FF841F67062088965245E67
:103BB000E56C81CBECC719B8E7C21021D41D19A759
:103BC000186186B167E4C108E19F4F8368B5A27CA4
:103BD000AE027361898D53A12EB0CCBD1727B20000
:103BE000CA6A137AFF400C9F01311896163308C039
:103BF00007281DC1B7B47B07CC0E742692D3B42B13
:103C0000A680C2E5449495F05644692929F46F7D55
:103C100047C0DF62A90BBA8D06C81E3D8CABCE49EA
:103C200090FCA532989A00B46BD81285C1552F5AD2
:103C30006756812BCCD361C64684770C8FC5377805
:103C4000DA5703D7E0FCF65370DC5D4A7857151E4F
:103C5000CFB27BA7F057E8BE36DBFFA1ADF27312FF
:103C600059E7B59ECEF3DEA8CFF198368D15A2E5C3
:103C7000897213B272F8D2B29BD6E6B4F51CA24494
:103C800070DC5D4A7857151E19F06F54B430EB2282
:103C9000AA3343F50D8B716A419FD12F19BF8C0256
:103CA000F4F8420B9A3A8292907324EAB6B494DB09
:103CB000CCFDC1DA0AD8473BDDDB7A1E3D58B88916
:103CC000B97837A2135C3DD2B01B13D733DF47F668
:103CD0001E9CF8E26008F5225C2512145B89AEF2A6
:103CE0003A53692FDDCF0E38C1BDC7CC69DF43E33E
:103CF0001A05006BEA3B45B5C48E7F35FF34662755
:103D0000D9511A32924AF4DFC473DC0FE422217EC7
:103D10004156949D91D66E1BFE3D0EB7DBCA36DE32
:103D200074A40B3A801F1B41A716C7A4412E67310C
:103D300053EE914ACDEB81986983A9F85E7FC81153
:103D40001A8816966EA9BCB7D30DA17383875B380A
:103D500092DA9007DBF9506A578C38008234C456E7
:103D60008F97C295A6E2BE7991F6D9C4587AE2320D
:103D7000D7A11D6D576D1B9F9A27163C556A80DB96
:103D8000555281A2E0EB09831C2A01910A1A4B03C8
:103D9000F21FB27B3A9D928BA126CA807B215547A8
:103DA0001E645E258CB5849C66FE3A9EF2FA8C48B1
:103DB00071B72E287AEEA64B320F14B0EB9120EBA0
:103DC00055FF53A6034F7F7EDBBE75EF9DBA88E596
:103DD000F850A236D53A2B2D70DC5D4A7857151E67
:103DE000A0D99E35D08956BC47C0DF62A90BBA8DD9
:103DF00085525FBB80FBC142075E90C525FC7E05F6
:103E00008629AF41E5C6A31E5F1158F4B0CEE6F98E
:103E100019B553A4C07BBA2821C8B594D2A13AA041
:103E2000A3ADFAA6CA66244E9A4609C4B34A25C66B
:103E30006FE39081C866874553EE914ACDEB819838
:103E40006983A9F85E7FC8111A8816966EA9BCB757
:103E5000D30DA17383875B38D172E880DCED26C176
:103E6000B3367BFE70A868118F97C295A6E2BE7923
:103E70006F52E4F4C787B237D7A11D6D576D1B9FF2
:103E80004B8B71BA38C16288FD2E9B3D6313C01AFB
:103E9000BBD62C6FD08C66E23C5549EDF55D027DBA
:103EA000A126CA807B215547A0A1CBC6DBBD120548
:103EB0000519724C58C3895612269734C31CFCD678
:103EC00042A1163544020B8ABD542148FBF39109E7
:103ED0004FD57662FED3FFD84654683860A798491C
:103EE0005B9E63237332A02D37A555F58E980A7B10
:103EF00073EBF1EF989141F75B772594B64D87D03E
:103F0000F6A0B3CEA5F47088DD61E11C1EA136E0F9
:103F100053EE914ACDEB8198A7D41E0CC768B9EA3D
:103F20002D60A0A3A57BF701C0A33F3FBB1C5A296E
:103F3000C9D4DE6919E275DC83F72F22C9B0326F6C
:103F400029220D8590C5DA9BE0E99C16CFF08A9F67
:103F5000DDDB7A1E3D58B889E2E5670D50983D9942
:103F60001C012EFB8CE6BE2EA1BDF00C6893CC315B
:103F700082FB5A2C4D6FF825C81C8D6C9308EFC539
:103F8000856D3DC94F7F140BDDDB7A1E3D58B88926
:103F90002A2408A9D89F7B9C925DABDB6301C924CE
:103FA0000ACF48248AA372B8BE983C89876E5BE921
:103FB0005C5515B95814D499F68FAE369BBE541B78
:103FC000B78F2B81A3C4548BA126CA807B21554770
:103FD000A0A1CBC6DBBD12050519724C58C389568A
:103FE00012269734C31CFCD642A1163544020B8A14
:103FF000BD542148FBF391094FD57662FED3FFD81B
:104000004654683860A798495B9E63237332A02D9D
:1040100037A555F58E980A7B4D7C41A017C3BE97F6
:104020005B772594B64D87D0F6A0B3CEA5F4708803
:10403000DD61E11C1EA136E053EE914ACDEB819883
:10404000A7D41E0CC768B9EA2D60A0A3A57BF70111
:10405000C0A33F3FBB1C5A29C9D4DE6919E275DCF5
:1040600083F72F22C9B0326F29220D8590C5DA9BC4
:10407000898ED2C8A10195BD01311896163308C0AA
:1040800063373524CBFCDB5ABEF1E4F1836CEBAF34
:10409000E2F804A770670F5CEF0D709F963D3D0E30
:1040A0004DE4051BF7FB295C09C52981AF4621C1F9
:1040B00077C510CD95FB1BC5BF1FB469AC791ADB62
:1040C0003F37A9E2D22C024AFD7EF2D733CD99AB1D
:1040D0004FD57662FED3FFD89D7A7FC694150A6CC1
:1040E0009043419801B470DE23BFEAF598BDC1DE6C
:1040F000414DCDE2C75762C27932AEDBF8814DF453
:104100003F3CB300E1F2B83BE3BE3C216C67B445F1
:10411000A9C0EE6619AF0CDA202BC24F4317F75F28
:1041200021C8B594D2A13AA0A3ADFAA6CA66244E7E
:1041300071B09E4642DC0099964C71F943E104B09F
:104140001342344D0D606C0D4FD57662FED3FFD80F
:10415000A89D05FACE0F8F11B26DD6AF207DC51286
:104160005B772594B64D87D0035247CC2977AB0EA9
:10417000D7FD7D62851B733653EE914ACDEB819856
:104180005E64E9E7A9CDEF19B900ABCEB3769987A4
:10419000638AF22CBBCEA2EBC9D4DE6919E275DCCE
:1041A00076089E3E9ED10BB9F14B973E41ECD9D299
:1041B000F24F64CC598587485BC39F50C47153B09C
:1041C0004F11B4BA7B96BF1B01311896163308C045
:1041D0003D72D6B95AEB072EE5BD2FEF232F1F8C6A
:1041E000BF1FB469AC791ADB964C71F943E104B096
:1041F000352FCE236C822D924FD57662FED3FFD819
:1042000013772A1E0EE7894AB3C6E57B30DD40E10D
:1042100082FB5A2C4D6FF825672DEB51694EE380D8
:1042200075A6D06B1B9DB629DDDB7A1E3D58B8897B
:10423000DCCE40D787B3A959B7763542231F4E74D9
:104240006A616ED85685F704BE983C89876E5BE933
:104250007A49C3222DC19CF42BC9E1B60753E14131
:104260004BD4648E63992945A126CA807B2155478A
:104270000583336A63E1CB257BE9FA037BFB773661
:10428000F2D9E80FF65273152EE702019A10117257
:1042900051F76ED6CC302A3A529654840C3C23FB0C
:1042A000CF0118F633B390C2B8903D04E0C97BD576
:1042B00076E8BB46C12B933D12AC188C7AFDC98CB5
:1042C00076E8BB46C12B933DA8638E8C9BB1270932
:1042D00078494A94A7EF2DC45DD7209CAA48F69B45
:1042E00057A405518C243D485E5390D44AA7B9FC8D
:1042F000682101695C20BAA576E8BB46C12B933DD5
:104300004A40F3E66288C61078494A94A7EF2DC464
:10431000429FCB5835499139004837225444DC9E9E
:10432000AB17392DEBA59B886C7CD7785B14D66FC7
:104330003C8595C37B42AA8AEA407487DD9F360E8E
:10434000B9FA89BCDE85FFFB40D71AD217066EE9A1
:104350003897409FD2774931959D8D386848FC1336
:10436000FA583B85B7F0D5DE2CDE3728282B994D3F
:10437000C85969362FD6EF24EC03711FB62805DB28
:10438000B51DFC9A9C316A8295630BD8E651E59481
:104390000D4C894BA504395CCFFA2BBF381C301F5C
:1043A000B5B228C0615AA6D1A3ADFAA6CA66244EFA
:1043B000ADF1B3B072E8CBB9B04B8132351DEE012F
:1043C000BD7FCB15D3DA8ED36BC76547D6E4C7B5AF
:1043D00068685E533B28F898C5F0C40A751ECDBCCA
:1043E00023603D9FC01DD6F9B31576612B2A3A464E
:1043F000203537078CBDA9CBCB7128107238070A3E
:10440000A1BAC669683CDBEC9F6C08CD2D97056CA2
:10441000BFE8A33F1536D349B29ABEE63FAA37FCA0
:104420001D479A0CB8603A14C15D9DCA591FEFAE82
:104430008DC6DC37465E6E20BB93C01C0F5CDC91E2
:10444000BA28BA6D3EAF2F5150B041A60AD4FCF441
:10445000D522B933654434887B564DC2007FC77975
:104460003985C20AA31E7ACA1252148D837224722D
:10447000B62B35A459300CA5BE51F4EE3CAEEB7909
:10448000F8849F7762D44301758DD09BA0661A3261
:104490001A41162A51234994E58F577C61A00C12CA
:1044A0001C94DF2049CD06394B8E9BECFF69FDA3A0
:1044B000C29FD6426F47BE259191414404E9B50E93
:1044C000469025D6F37C6E1E8F164AEF4AF0A70A57
:1044D000DD5521C368A75F3B769DD698A08D2350FC
:1044E0004407E9FB523285E22A78E3CA9F0167BF9D
:1044F000A851BF1C352F1091408D1D3ECF36FCE4D6
:104500000706801D635B6B154CE28206202EEB4490
:104510004E9F91F891CF1B0A4D9DFA438933929F8C
:1045200042C7DB1878820A3393B0D52818EA35637E
:10453000A9BC1E0E5ED9727D873DDA47EB49930018
:10454000EE78F33877E2C10E50689699FBCBDA77B4
:10455000247B569D712630D12254A2B0C178533F9E
:104560009D32B0797BC08FAF6A256DA15D32A9E81D
:104570000835FB84BB25852C41550A18296862A59E
:10458000FEB5FF902340375145F6BB8D154C4A4B85
:104590005FA14EF43A4CCF2A421B8B34C050D71C3B
:1045A0006871975042437AA259CA6A6C8146B87EB4
:1045B000AB4375667B0BA4D6211AE3EE7BA3653A69
:1045C000E1F3490CF324C8D6906514D90A401F7C46
:1045D00087B42A99A9C55ADC55A52B7B7F25E0FA1B
:1045E0008D3285099C38AE6E767E8938FE5F58859F
:1045F000B6F2D95507516239D24485233A61E7E9C9
:10460000DE1FA66A69F41C43135D3B518545962B5A
:104610007454AD6F6F72DC57B80D97701F5C739454
:10462000017FE6B8BCD9289EE5E29654FB0B0C81CD
:104630005DDC64D8FD16552E9256E984358AAB9719
:104640006383DCED7BD256EE1E9A3C11AE980431AA
:104650005750ECC88F9334A2507DCC1ECB3B441EE8
:1046600054437C6808C8410E8F51D59634E58EE3DB
:10467000882480226C00AA2ED99D58CE78071C5120
:104680003A0522666FD6FD4F364EAA0A638EE3675F
:10469000E23C748619456037563AD536E6AD70234C
:1046A00054DDCDD65E2EF7DA9BA2015923B8706A8D
:1046B000061D2FAB28BA0FF1E74D2129834935EEAE
:1046C00094B1133E4C63365ADD79AED6138A29175E
:1046D00014A62C1B1A2A3DCC6774E0DD05FE2B4F77
:1046E000C414088F4FF62E82B786EABBA6FCD211FF
:1046F000835EDB7FD9DE5AC7438685F0F4B528B3E5
:104700002895E09DF76537AE383E9E78B30BBBAD7C
:104710005988A747F8753521FF5D1441BAB5353181
:1047200001311896163308C034721224A3EA4D2CB6
:10473000226AD9242230E663F9DE0812B7FA8AE148
:10474000245127161927714C7F6CEFDD3836A9C626
:10475000253643695EE935BA2A8BA7EEF1D7F8957D
:10476000B0B580D2CB51E617FF0AF27E1B7594DDFF
:104770003871DD861DD675C5C0CB20CF14610422EB
:104780006F498D64885E279B745DC1A0BCD1BA3C23
:10479000C89CD4573B7D5C25D77644BD48007E6ECF
:1047A000A3ADFAA6CA66244EC8EAE958A80D4FEB95
:1047B000FFA228A0865F6CAC0D8A12D4E4D03DFC29
:1047C0002B3A47E3831CFE90C0EDDFF418202198BC
:1047D0003B5D08331FDCDF3A081DAA3F60FC4E0E2C
:1047E00022EC6730D89F02DB77B32F6F1E1F26D2D3
:1047F0004E3E5E3046D3F8450712D21143DF7909A9
:10480000C414088F4FF62E82196BEC8AB5D48F1B17
:104810003D07025C558515355368011183F8DA2789
:104820008D0BAAA4A5D7AC317AA777DB645559982C
:104830004FC51846049BFC5745D62B10A9E5D24E10
:1048400059F480234E61555B8F44C15344F5468330
:1048500001311896163308C0F38A966B9894C19963
:1048600055BCB83B5643FAB9EEE79C0668DEE7D480
:1048700086D5F664F5A3BADDA6AB8162F77B84101A
:1048800022599BFE152E548EE26F283874D4DFB95E
:104890001C5EF37CBFF6FB43C414088F4FF62E82D8
:1048A0000ADBC330EC74498959F480234E61555BAF
:1048B000EA9154BD1496182BF48826689DC3ECF039
:1048C0000C7EFF6D47752F942A163CF88B8055DBC4
:1048D0008D84687A1A154142605A8C8F9B61F49ED0
:1048E00095E639EFEE2B3210085C82322C9BED2BD3
:1048F0005B5357B75C37F69FEE54FCC15790168652
:104900000C7EFF6D47752F9404A1DFD1D708CEC868
:104910004FBE0CB3DC3BD7B4FC6F2E760B0C748906
:104920004C6AFB2B4D8FA6AB5477B490958CF94114
:10493000EF46107E193213D6954E6295DB174FA1C4
:104940009ECAF2B28F1E3F6176F1D5BD678B25FFFF
:1049500098A6859C0551AAEE10C506205434C6F5CC
:10496000EAD0794F60D13F34E00B3B1BEF8FF6EB81
:10497000131ACA348C5A3576ADFD4AD9DB5AC07049
:10498000820ACA38EA10DE3F752116C842522F87C4
:10499000CC1C64D2D907721240D4F4618F3724FF43
:1049A0009EC1B58C2F0DB97BA181432E2A33E653CE
:1049B00074E265C9136A3203DDFA5E06AF4009A4EA
:1049C000C71D81A6EEE799C76D764AA77D4B80A6E5
:1049D0004A9391175DA2EE56975F823B22933C9AD1
:1049E000F2DFB75E8EC0AD9F038D1BFE61F4DF5119
:1049F000C59879BA887F73E4236A1072E68270E4FE
:104A000033FC5F2A12FFD5A07E35B660D38AA5CAD3
:104A1000D28ED8DCAA184116A134A2D8F4DF5622CF
:104A200036E85422AFD7E3184B5BDABA499FAC2182
:104A3000582A77EED2663133EECE56D18F404F2BC7
:104A40003DD192EE9E9E441C42C2C4CB0DD800D0F4
:104A5000255C8C53A9662BE21262481AA661D63EE9
:104A6000A4520E98BC5BD24AD034D9B27FD1718B9C
:104A7000729BA4DFF457B1F9017DAC04464D147864
:104A80002E5DCD0EF68D70BE481FC414849C7C2311
:104A90006E7B5CF530600ED4199CE7FE26B07A7F01
:104AA0004E23D4ACA415A7FCA3ADFAA6CA66244E27
:104AB00009AB28D364F263806376F27718F6DBBE25
:104AC000439ADB48F5C17D213BEBAD7B7922D6F0E3
:104AD00049680721BEF7E440A52DB115D9366D4FC1
:104AE00046361E87DD0A4E4A740B5199A7722DBCBB
:104AF0004660FF9F86C174C1FFAB5A9393D6DBCB50
:104B0000C2773D1336EF68874FE75F3AF5B6F03E60
:104B1000A3C898109BA2FA5408309B72977EB57D6B
:104B200088EBD3B8B0642E735E262546F3B1CE85EC
:104B3000B168808DE2A35D1749680721BEF7E440A4
:104B40002FA1ECCF03E9E2576E4F156546749C2008
:104B5000B4170DED4D967CA6BEF6F313DDAE95DFD2
:104B600006B2432DB13D1D2358AE0D0B06935D9F3C
:104B700044F2FF82DF0A4EC2BBFFD35F88D25C489B
:104B80007F0E71434C6515AFD7E389CE4F51D7D710
:104B90008C0BA40FAC78EC27247A68208F1D13654A
:104BA0007462C3083A8445D7E5F2577F0940F5950A
:104BB000D50706FBE1A7C44694F7ADFD4D2497EA5F
:104BC0007C2EE1C87678DD2C9C56A69891FFA0AF8C
:104BD0000C17EB6FD344F17F2A61CB10383A2E23A8
:104BE000A9809B11D258C088B1A25B0E93FA4BE901
:104BF000C0215E0E36C88B9A18B07165BC193B9CFB
:104C0000A3ADFAA6CA66244EB45852E5E0EA1055A0
:104C10007FB7D989FB26030F3B1D5C6A2514AE3490
:104C2000AFE905E837A62A7B8724ADCDB8248A3DB5
:104C300077F2D40D958BF3F00B8DDA86499686AC1E
:104C40006D25DB0C1DF7D1D6A043F5C2792CCA65C2
:104C50006538A414A6BC8D9EA126CA807B21554729
:104C6000CB560AAAEFD441F43B18861B1E21AD0C8B
:104C70001DC74593CD56D5B4420EDE4C3638590F7C
:104C8000766EF93454345C133C80900A0E2E26E282
:104C900077D78047FA45D8A25C43D240D616E60CB7
:104CA000FD0F521F8C9B49BFBBC78EFEF0478D6620
:104CB000D942B0237055F377ED1675F893684B74AD
:104CC000A964B08B371F9A0279DF8658F2DD7F889E
:104CD000EBB9BE048F92560E0D8BB58BA733587D62
:104CE000014445F08B44CD7D35FBC929A75488B9D3
:104CF000AD5907698737FBD0B32C9ACEB750AAF5C8
:104D000043CA23AD56C7A80F7A90B618CB740313C5
:104D100049E9A256D1858C9DBC698E2DEEBF5E7689
:104D20008E92B7DEA774309911C53B506CF0C16804
:104D3000A8F6DC22899DC6F474D355ED269CF28931
:104D40008CE0B44B49EB5DBF497652B65227E7E39E
:104D5000B84B6126ACD6082A466270E37784199E68
:104D60002DF72D1C681169243CE3DE67B6822DC146
:104D7000B47E1212EAEB6F517A8E4130525D48F1E7
:104D800012B860186A8F7966D53AD1655081935709
:104D9000870C5925D6D82463B64E090E6C54CBCE59
:104DA0006FA286EE681E3F41F1107AEF1C88DA028E
:104DB000D954A2CA85A80659E5329710FC11BCBB8C
:104DC000C8D483B1836A22758EA76DD4AF190EB291
:104DD000252AC4CDF2CCFE397EAD4C3660295BB2BB
:104DE000B22C5D327318D6E8FF4358C73D60D2132A
:104DF000E5081848B023741689F669980CD21DD6B8
:104E0000F69A1D4C78310E755137A4B7C7E97D026B
:104E1000D0A6A1A1C6643515E052FA2653A4B292D9
:104E2000C45235A4DF0DE7A40475BEF89045B97EE1
:104E30000F521220BE1638462E54BB527396C0AD88
:104E40009C6E740D302C9CBDFC745B33A267623485
:084E500061B7F6E421CB19A0C3
:020000040030CA
:10000000741E5364475A281D80C670664A7D2D00B1
:00000001FF
